:020000040800F2
:1000000048100020250300089B5E000811590008D5
:10001000995E00082D2200081D6C000800000000F9
:10002000000000000000000000000000E164000883
:100030000323000800000000CB630008E36400080D
:100040003F0300083F0300083F0300083F03000888
:100050003F0300083F0300083F0300083F03000878
:100060003F0300083F0300083F0300083122000857
:100070003D22000849220008552200083F030008DD
:100080003F0300083F030008512000083F03000819
:100090003F0300083F0300083F0300083F03000838
:1000A0003F0300083F0300083F0300083F03000828
:1000B0003F0300085D650008696500083F0300080C
:1000C0003F0300083F0300083F0300083F03000808
:1000D0003F030008116C00083F0300083F030008BD
:1000E0003F0300083F0300083F0300083F030008E8
:1000F0003F0300083F0300083F0300083F030008D8
:100100003F0300083F0300083F0300083F030008C7
:100110003F0300083F0300083F0300083F030008B7
:100120003F0300083F0300083F0300083F030008A7
:100130003F0300083F0300083F0300083F03000897
:100140003F0300083F0300083F0300083F03000887
:100150003F0300083F0300083F0300083F03000877
:100160003F0300083F0300083F0300083F03000867
:100170003F0300083F0300083F0300083F03000857
:100180003F0300083F0300083F0300083F03000847
:100190003F030008000000003F0300083F03000881
:1001A0003F0300083F0300083F0300083F03000827
:1001B0003F0300083F0300083F0300083F03000817
:1001C0003F0300083F0300083F0300083F03000807
:1001D0003F0300083F03000800F002F800F092F827
:1001E0000AA090E8000C82448344AAF10107DA4592
:1001F00001D100F087F8AFF2090EBAE80F0013F052
:10020000010F18BFFB1A43F001031847D8850000FF
:10021000F8850000103A24BF78C878C1FAD8520790
:1002200024BF30C830C144BF04680C607047000070
:100230000023002400250026103A28BF78C1FBD8EF
:10024000520728BF30C148BF0B6070476E2900F0CD
:100250001D82702900F05F83662907F0F681652909
:1002600007F0F381672907F0F081612907F0EF813A
:1002700003681B0A28BF41F08001692900F0CA8188
:10028000642900F0C781752900F0C4816F2900F04E
:10029000EC82782900F02B83E92900F08782E42999
:1002A00000F08482F52900F08182EF2900F0E982D4
:1002B000F82900F02A830368DB0928BF41F0800198
:1002C000632901F02D80732901F03280E32901F0C8
:1002D0003D80F32901F04280002070471FB507F0F0
:1002E000AAF901F091F804000020002106F046FE72
:1002F000401C60600020002106F02AFEE0601FBD67
:1003000010B510BD01F052F81146FFF7E7FF06F0F7
:10031000B5FC01F02FF903B4FFF7F2FF03BC01F0C5
:1003200033F900000948804709480047FEE7FEE727
:10033000FEE7FEE7FEE7FEE7FEE7FEE7FEE7FEE795
:1003400004480549054A064B704700004D65000802
:10035000D9010008480A002048100020480C00205D
:10036000480C002053EA020C00F069802DE9F04BA4
:100370004FF00006002B1FBFB3FA83F503FA05F414
:1003800024FA05F65E4012BF1643B2FA82F502FA6D
:1003900005F4C5F120051EBF22FA05FC44EA0C0451
:1003A000203556EA044C4FEA144418BF641C4FF041
:1003B00000084FF00009904271EB030C39D300297B
:1003C00019BFB1FA81F701FA07F6B0FA80F700FA1F
:1003D00007F6C7F120071EBF20FA07FC46EA0C0605
:1003E0002037B6FBF4FCA7EB0507103F07F01F0B07
:1003F000CBF120060CFA0BFB2CFA06F644BFB346F1
:100400000026202FA4BF5E464FF0000B5BEA060CCF
:1004100008BF4FF0010B19EB0B09ABFB027C48EB5B
:100420000608C01B06FB02CC0BFB03CC71EB0C01D6
:10043000C1E70B46024641464846BDE8F08B13B57E
:100440004FF000004FF00001AFF30080BDE81C400A
:10045000704700001CB50C46064B7B446946009073
:10046000204600F02CF904460020694600F03AF9D5
:1004700020461CBD870200004FF0000200B5134665
:1004800094469646203922BFA0E80C50A0E80C50B4
:10049000B1F12001BFF4F7AF090728BFA0E80C5065
:1004A00048BF0CC05DF804EB890028BF40F8042B5E
:1004B00008BF704748BF20F8022B11F0804F18BFCB
:1004C00000F8012B704700004FF0013C50F8042B5E
:1004D00051F8043B9A4221D1A2EB0C03934313EA57
:1004E000CC1317D150F8042B51F8043B9A4215D184
:1004F000A2EB0C03934313EACC130BD150F8042B5B
:1005000051F8043B9A4209D1A2EB0C03934313EA3E
:10051000CC13DBD04FF00000704700BFD01A01BAF7
:10052000B1FA81F101F0180122FA01F0CB40C1F1DA
:100530002001DBB2C0B2C01A2CFA01F3D11A9143E8
:1005400011EAC311E6D1704770477047704770B524
:10055000044685690068C10601D5302600E02026E2
:10056000C00707D070BDD4E9012130469047206A0A
:10057000401C20626D1EF6D570BD70B504468569BD
:100580000078C00707D170BDD4E901212020904731
:10059000206A401C20626D1EF6D570BD09684A05B0
:1005A00001D540B27047C905FCD500B27047096853
:1005B0004A0501D5C0B27047C905FCD580B2704765
:1005C00070B50C460546012A05D02878800600D56E
:1005D000EA69002302E0012305E05B1C934202D29A
:1005E000E05C0028F9D1A869E618C01AA861286A59
:1005F000184428622846FFF7AAFF04E0D5E9012144
:1006000014F8010B9047B442F8D32846FFF7B5FF22
:1006100070BD00002DE9F0410646002410687529E0
:10062000314616A510D0FFF7B9FF002802DA404284
:1006300013A507E031688A0701D512A502E0490732
:1006400004D511A5012401E0FFF7B1FF00210A2222
:1006500006F1240709E0B0FBF2FCB0FBF2F302FB69
:100660001C00303078541846491C0028F3D123462A
:100670002A463046BDE8F04100F061BA00000000B3
:100680002D0000002B00000020000000116802680F
:10069000006A530501D508700AE0D30501D508802A
:1006A00006E0130603D5C217C1E9000200E00860A6
:1006B0000120704701694A1C02610878704700B543
:1006C0008FB0CDE901310021059105497944CDE98B
:1006D00003101146684600F029F90FB000BD000074
:1006E000E5FFFFFF0A6802F8010B0A60704700008F
:1006F0002DE9FF5F15468A460446DFF8AC80F844D2
:100700000027D8E900103E46CDE9001010E03AF885
:1007100016106A4602A800F025FE411C07D0217879
:10072000890603D5E269391891420DD80744761C31
:100730002078800602D5E069B84205DDAE42E6DBEE
:100740003AF816000028E2D1A069C01BA06120463B
:10075000FFF7FDFED8E90010CDE90010002017E0FA
:100760003AF818106A4602A800F0FCFDB0F1FF3F0D
:1007700081460BD000250DF1080B05E0D4E90121DD
:100780001BF8050090476D1C4D45F7D308F101009B
:10079000B0428046E4DB206A384420622046FFF7FE
:1007A000ECFEBDE8FF9F0000E27700002DE9F0417C
:1007B0008046D21D22F007020025D2E90002F52969
:1007C00015A614D0011E72F1000106DA0023D0EB49
:1007D000030063EB020211A608E0D8F800108B07B3
:1007E00001D50FA602E0490701D50EA60125114645
:1007F000002408F1240704E000F05CF930323A5597
:10080000641C50EA0102F7D12B463246214640468D
:10081000BDE8F04100F093B9000000002D00000099
:100820002B0000002000000030B4002100F124045F
:1008300008E002F00705D208303542EA4372DB08CF
:100840006554491C52EA0305F3D10468002310A241
:10085000250707D5A40600D421B1C46901230DA240
:10086000641EC46130BC00F06AB910B5044621466C
:100870001068FFF79CFE02462046BDE810400023AA
:10088000D2E7D21D22F00701D1E90023CCE7000016
:100890000000000030000000F0B40D46018809059A
:1008A00002D5214C7C4402E01F4C7C440E340021D4
:1008B00000F1240608E002F00F071209E75D42EAA2
:1008C00003721B097754491C52EA0307F3D10278DB
:1008D0000023120704D5702D06D009B1022311346C
:1008E0002246F0BC00F02BB901231034F8E770B5B4
:1008F00004460D4621461068FFF759FE0246294678
:100900002046BDE870400023C6E7D21D22F0070351
:10091000D3E90023C0E70368126843F020030360B3
:100920000823C3610023B7E7447600002DE9F05F98
:10093000894604464FF0000ADFF874B1FB44C0F862
:1009400020A02046E1688847002874D0252806D0DA
:10095000D4E901219047206A401C2062F1E700267B
:100960005F462046E16888472028054607DB312D91
:1009700005D2781910F8200C08B10643F1E7B0074A
:1009800001D526F00406C4F81CA00027C4F818A05E
:100990002A2D09D0284606F06AF938B304EB8708F7
:1009A000303DC8F8185019E059F8041B204604EBF4
:1009B00087029161E1688847012F054618D1E069F7
:1009C000002820DA26F020061DE0D8F8180000EBF9
:1009D000800005EB40003038C8F818002046E16878
:1009E0008847054606F043F90028EED1012F0AD0CA
:1009F0002E2D08D12046E16888477F1C0546022F2E
:100A000046F02006C4DBA069002803DA404246F025
:100A10000106A061F00701D026F010066C2D0BD066
:100A2000682D09D04C2D39D06A2D35D0742D35D094
:100A30007A2D33D016E038E0E1682F46204688470B
:100A4000B842054609D16C2F26D04FF48060E1688A
:100A5000064320468847054604E06C2F1AD04FF421
:100A6000807006430DB3A5F14100192802D8203546
:100A700046F400664A462946204626604E46FFF761
:100A8000E5FB80B101280BD0F61D26F0070000F130
:100A9000080956E74020E4E78020D8E70020D6E7A1
:100AA00006F104094DE7284652E7206ABDE8F09FA9
:100AB000D475000030B5B0F10A024FEA900E71F122
:100AC00000034EEA817EB0EB0E0061EB91014FEA2C
:100AD000101E4EEA017E10EB0E0041EB11114FEAA1
:100AE000102E4EEA016E10EB0E0041EB11214FEA81
:100AF000104E4EEA014E10EB0E0041EB1141401832
:100B000041F100014FEAD00040EA41704FEAD101C3
:100B100010EB80054FEA810444EA907444EB010431
:100B20006D1944EB0404521BA3414FF0000348BF6E
:100B30000A3200D530BD401C41F1000130BD2DE925
:100B4000F0470D4699469246044600F12408016894
:100B5000880604D5E06921F01001216000E0012041
:100B6000A84201DD471B00E00027A1697A1902EBCA
:100B70000900081AA0612078C00602D42046FFF7B9
:100B8000E6FC002608E0D4E901211AF806009047A7
:100B9000206A401C761C20624E45F4DB2078C0069B
:100BA0000AD52046FFF7D3FC06E0D4E90121302026
:100BB0009047206A401C2062381EA7F10107F4DC30
:100BC00007E0D4E9012118F805009047206A401C8D
:100BD0002062281EA5F10105F3DC2046FFF7CDFCBD
:100BE0002078000602D50220BDE8F0870120FBE74F
:100BF00070472DE9FF4F0C461E464FF0FF378BB074
:100C0000D2E90001DDF860800A908A46C1F30A55F6
:100C100005B93D46002108464FF00000BAF1000F2B
:100C200000F4400005DA00EB80004FF4400101EAD7
:100C300050004FEA9059B9F1010F00DDB9460A980A
:100C400050EA4A000ED044F61050A5F2FF35454355
:100C50002F14B8F1000F1ED07542291E1EDDC9F1F8
:100C600000021CE0B8F1010F4FF0000001D030216C
:100C700003E0F24305E02154401CB042FBDB304668
:100C80000022002121540B99C1F80880C1E90020FD
:100C90000FB0BDE8F08FBD1B6D1CDEE74A4600DAE1
:100CA000694206A800F0F4FB06AB93E8070003AB2B
:100CB00083E8070050460A9900F002FE8DE807001D
:100CC000A0F500501F3800900398002D0ADD42F275
:100CD0001F014A460844002303A90390684601F017
:100CE0006BF809E0A0F500504A461F38002303A91D
:100CF0000390684601F075F88DE807000004000CC9
:100D000003D04FF0FF30410800E01046B8F1000F6B
:100D100003D00022009215461EE0751E05D4FFF791
:100D2000C9FE303262556D1EF9D5B3460122084323
:100D300002D000227F1C04E02078302801D100225C
:100D40007F1E002A099784D01DE0112D07DAFFF7D6
:100D5000B1FE303262556D1C50EA0102F5D10843F4
:100D600002D00098C8B10EE00021681E05E0235CA7
:100D7000625C63542254401E491C8142F7DBAB463F
:100D8000A81B401E0990002004F80B000B98099A3C
:100D9000C0F80880C0E9002B7AE711264FF0000860
:100DA00057E72DE9F04F88460446D21D22F007018F
:100DB00091B0D1E90001CDE90A0105F030FF02460A
:100DC0000B98C00F01D02D2007E02068810701D5C6
:100DD0002B2002E0202101EAC000032A099001D063
:100DE000072A05DB03464146204600F011FB0BE1D4
:100DF0002078800601D5E06900E00620B8F1650F93
:100E0000814606D0B8F1660F18D0B8F1670F70D1DF
:100E100031E00020B9F1110F009001DB112301E056
:100E200009F101030AAA01A90CA8FFF7E2FEDDE916
:100E30000C70002609F10105834647E001204B466E
:100E400000904FF000470AAA01A90CA8FFF7D1FEB5
:100E5000DDE90DB00C995D46002610B909F10100DD
:100E60000D18B9EB050003D4C0F1FF3609F10105F7
:100E7000A5EB09002BE0B9F1010F01DA4FF00109F0
:100E80000020B9F1110F0090484601DD112300E068
:100E900003460AAA01A90CA8FFF7ABFEDDE90C7016
:100EA0004D4600268346207800070AD4AB4500DA79
:100EB0005D4601A8012D04DD411911F8011C3029FE
:100EC00007D04F4502DA17F1040F04DA01208246F9
:100ED0000FE06D1EEEE7002F02DCED1B3E4403E049
:100EE000781CA84200DD7D1CB81B00F1010A4FF000
:100EF00000472078000703D4AA4501DB4FF0FF3AF2
:100F00000021B7F1004F0DF143088DF8431024D0B4
:100F100002202B23002F01DA7F422D230A21021EFB
:100F2000A0F1010000DC5FB197FBF1FC97FBF1F24F
:100F300001FB1C7C17460CF1300C08F801CDEEE7E4
:100F4000A8F1010003702188090501D5452100E0C1
:100F50006521A0F1010800F8011C09980FA9A1EB77
:100F60000807FF1D00B10120411901EBEA70A169DA
:100F70003844081A401EA0612078C00602D42046DA
:100F8000FFF7E5FA099828B1D4E901219047206AD2
:100F9000401C20622078C00622D52046FFF7D7FAF1
:100FA0001EE0002E04DBB34502DD01A8805D00E0F9
:100FB0003020D4E901219047206A401C2062761C31
:100FC000AAF101005FEA000A0AD100F01DFAC06828
:100FD0000168405CD4E901219047206A401C2062EE
:100FE000281EA5F10105DCDC07E0D4E9012118F891
:100FF000010B9047206A401C2062381EA7F10107B0
:10100000F3DC2046FFF7B9FA032011B041E60000F7
:101010002DE9F04F04460D46D21D22F0070089B09D
:10102000D0E900974846394605F0F9FD0246F80F29
:1010300001D02D2307E02068810701D52B2302E092
:10104000202101EAC0038DF820300BB1012000E01F
:101050000020032A824601D0072A04DB29462046C5
:1010600000F0D6F93FE12078800601D40D2500E09C
:10107000E569C7F30A560D2D49DA00214FEA175BDF
:1010800008464FF00000002F00F4400007DA00EBA4
:1010900080004FF4400100EBD07001EA6000811540
:1010A000012901DD4FF0FF3100224FEA850CBCF130
:1010B000180F06D31346ACF118004FF08052C2400F
:1010C00003E04FF4801323FA0CF30CF10C0CBCF189
:1010D000200F04D3ACF1200C09FA0CF001E007FA60
:1010E0000CF000294FF0004801DD18B90FE00ED1D7
:1010F00040450CD319EB02095F4121B9404502D1AB
:101100009F4329EA0209BBEB175F00D0761C2088B9
:10111000000502D57B48784402E07A4878441938C3
:1011200008AA302302F80A30037C0AF10101002EDC
:101130000AF1020A53546A4602DC4FF0300101E022
:101140004FF031014FF001088DF8001002D0A6F2E7
:10115000FF3603E059EA470100D06B4E002D02DC58
:101160002178090704D54FF002082E218DF80110CF
:10117000C44600210BE0C7F303433F01C35C491C95
:101180006D1E02F80830052908F1010801DA002D6A
:10119000F1DC00210CE000EB1973491C1B786D1E7B
:1011A000082902F808304FEA091908F1010801DAA4
:1011B000002DF0DC21688B0602D516E0A8F10108AD
:1011C000E04505DD02EB080313F8013C302BF5D0B8
:1011D000B8F1000F09DD02EB080313F8013C2E2BD8
:1011E00003D1090701D4A8F10108002D05DD3E2136
:1011F00002F808106D1E08F10108407C002E02F86C
:10120000080008F1010804DA2D20764202F80800EF
:1012100002E02B2002F808000A214FF47A7086427F
:1012200008F101080BDB96FBF0F3303302F80830CD
:1012300096FBF0F308F1010800FB136601E0642E51
:101240000CDB642096FBF0F3303302F8083096FB99
:10125000F0F308F1010800FB136601E00A2E06DB3B
:1012600096FBF1F0303002F8080008F1010896FB17
:10127000F1F001FB1060303002F80800A16908F1BC
:10128000010808EB050202EB0A00081AA0612078A9
:10129000C00602D42046FFF75AF9216A08AE01EBD6
:1012A0000A00206204E0D4E9012116F8010B9047FE
:1012B000BAF1010AF7D22078C00602D52046FFF71E
:1012C00046F96E4609E016F8010B3E280FD0D4E926
:1012D00001219047206A401C2062B8F10108F2D237
:1012E0002046FFF74AF909B00320BDE8F08F206AD5
:1012F0002844206203E0D4E90121302090476D1E8C
:10130000EBD3F8E71E6E000002FCFFFF10B5436947
:1013100013B1AFF3008001E0FFF752F9012010BDD7
:10132000127800F124010A7000224A700122EDE7D0
:1013300011684FF0FF32E9E710B5436913B1AFF31D
:10134000008001E0FFF7D4F9012010BD128800F100
:10135000240182840022C2840122EDE711684FF04B
:10136000FF32E9E770B516460C46054600F044F832
:10137000036893F80101012806D0FF2C0FD8185DEF
:1013800068B101202C7070BDD3F8070132462146A8
:1013900003F2071303442846BDE8704018474FF096
:1013A000FF3070BD00487047E80900207546FFF720
:1013B000F9FFAE4605006946534620F00700854612
:1013C00018B020B5FEF7BCFFBDE820404FF0000686
:1013D0004FF000074FF000084FF0000B21F007011D
:1013E000AC46ACE8C009ACE8C009ACE8C009ACE860
:1013F000C0098D467047000010B500F005F8001DCB
:1014000010BD00BF795B000000487047080A00204B
:101410002DE9F0411F46044603260168072A01F41E
:10142000006004DB08B116A505E016A503E008B1CD
:1014300015A500E015A521F010002060A069C01ED0
:10144000A0610FB1401EA0612046FFF780F84FB1A8
:10145000D4E9012138469047206A401C2062C01C14
:10146000206206E0206AFAE7D4E9012115F8010BB1
:101470009047761EF8D22046FFF77FF8BDE8F0814E
:101480004E414E006E616E00494E4600696E660028
:101490002DE9F047814616468AB0354878440DC894
:1014A0008DE80D0032487844801C03AC0DC884E8F8
:1014B0000D0041F69B300844372190FBF1F290FB80
:1014C000F1F5A5F1800501FB12041B3C02D5644235
:1014D000012000E00020DFF898A080460027FA44B1
:1014E000AAF1BE0A0EE0E0070AD03246684607EBD2
:1014F000470101230AEB810100F073FC8DE807002E
:1015000064107F1C002CEED1194F7F44AE3F19E0D0
:10151000E80715D007EB04100DF1180A90E80E004B
:101520008AE80E00C068F04201D19819089032464E
:10153000012306A903A800F054FC03AB83E80700CD
:101540006D10641C002DE3D14FF001033246694653
:10155000B8F1000F03A802D000F02EFC01E000F06B
:1015600040FCC9E90001C9F808200AB0BDE8F087CD
:10157000286B000010B50446AFF300802046BDE89C
:101580001040FEF7C8BE000001491820ABBEFEE7C0
:1015900026000200704700009FED221A9FED222ACC
:1015A00020EE010AB5EE001A30EE010ABDEEC01AB7
:1015B00011EE100AB5EE400AF1EE10FAB8BF01388C
:1015C00001EE100AB8EEC11A30EE410A20EE020A0E
:1015D000BDEEC01A9FED152A11EE100A002130EE63
:1015E000021AB1EB502F47F6E0711CBF0020B0EE9D
:1015F000410AC0F6000101EE100A01EB8001B8EECD
:10160000411A30EE410A91ED001A91ED012AB7EE30
:10161000003A33EE403A23EE011A20EE020A31EE90
:10162000000A704783F9223E00000044000000C415
:10163000F0B590ED000A4C1E4FF0000CBCEB940F7F
:1016400000F1040E3BD001272646A50867F30106EA
:101650004FF0000C042700BF9EED001A9EED012AFA
:101660009EED023AB4EE410A9EED034AF1EE10FA05
:10167000BCBFB0EE410AA7F1030CB4EE420AF1EE92
:1016800010FABCBFB0EE420AA7F1020CB4EE430A56
:10169000F1EE10FABCBFB0EE430AA7F1010CB4EEB4
:1016A000440AF1EE10FABCBFB0EE440ABC46013D5C
:1016B00007F104070EF1100ECED100EB860E14F0E8
:1016C00003000ED0404200BFBEEC011AB4EE410A46
:1016D000F1EE10FABCBFB0EE410A01EB000C013094
:1016E000F2D382ED000AC3F800C0F0BD80B500233C
:1016F000B3EB910F1ED09FED1A0A4FEA910E21F025
:10170000030C034693ED001A93ED012A93ED023A80
:1017100030EE010A93ED034A30EE020A30EE030A7E
:1017200030EE040ABEF1010E03F11003EAD100EB22
:101730008C0001E09FED0A0A11F0030306D000BF00
:10174000B0EC011A013B30EE010AF9D101EE101A9A
:10175000B8EE411A80EE010A82ED000A80BD00BF9A
:101760000000000090ED082A90ED060A90ED071A9F
:1017700032EE023A30EE011A30EE030A31EE021A6E
:10178000B1EE400A80ED001A80ED010A80ED022AD8
:1017900019B10021C0E903114161704780B59FED87
:1017A000441A9FED443A20EE011AB0EEC11ABDEE84
:1017B000C12AB8EEC22A31EE421A21EE031ABDEE5A
:1017C000C12A12EE102A02F1800E6FF35F2247F653
:1017D000E07CC0F6000C02EE102A6FF35F2E0CEBDB
:1017E0008203B8EE422A0CEB8E0231EE421A92EDE1
:1017F000002A92ED013A93ED004A93ED015A9FEDD4
:101800002E7A33EE426A74EE050A20EE877A76EE7F
:10181000060A74EE041ADFED292A37EE607AF0EE3C
:10182000080A75EE211A26EE206A61EEA21A21EE50
:10183000077A36EE216A36EE076A21EE066A24EE52
:10184000227A36EE476A21EE066A32EE066A81EDAA
:10185000006A35EE445A32EE036A26EE226A35EE0D
:10186000057A36EE476A32EE027A33EE073A25EE13
:10187000205A23EE223A21EE066A35EE433A33EE41
:10188000063A21EE033A22EE222A32EE032A21EE14
:10189000021A34EE011AB5EE400AB1EE412AF1EE19
:1018A00010FAB8BFB0EE421A80ED001A80BD00BF3A
:1018B000610B363B00000044DB0F49BCDB0F493CA9
:1018C0005FEA400C08BF91F0000F4FEA8C234FEA0B
:1018D000C12243EA51514FEA1C5018BF00F5F040B5
:1018E0004FEA300018BF41F000415FEA6C5C00F045
:1018F0002980BCF1FF3F08BF40F080407047130CC7
:1019000006BF12044FF0100C4FF0000C130E04BF72
:1019100012020CF1080C130F04BF12010CF1040C9D
:10192000930F04BF92000CF1020CD30F04BF5200BE
:101930000CF1010C11464FF00002A0F11F00A0EBCA
:101940000C00704711F0004F08BF704731F00041A4
:101950003FF4D5AF0B0C06BF09044FF0100C4FF04D
:10196000000C0B0E04BF09020CF1080C0B0F04BF96
:1019700009010CF1040C8B0F04BF89000CF1020C5F
:10198000CB0F04BF49000CF1010CCCF12003A0EBFC
:101990000C0022FA03F302FA0CF241EA030100F10F
:1019A0000100704720F07F4C80EA030023F07F475E
:1019B000ACEB070303F57C5300F0004003F1FF0399
:1019C0002DE980494FEA154B09B44FEA144325EA43
:1019D0000B4E24EA03480FF2042606EB13274908AE
:1019E0003E785FEA320203FB0667C7F5000707FB94
:1019F00006F64FEA54374FEAD64606F1020607FBD1
:101A0000066CCCF1005C4FEA1C472CEA074C07FB44
:101A100006F40CFB06F504EB15464FEA961634BFA8
:101A200000204FF000404FEAD13706FB07FC4FEA99
:101A30001C4C0CFB0BF7D21B03FB0CF761EB0701F3
:101A40000CFB0EF7B0EB074072EB17420CFB08F7EC
:101A500034BFA2EB0742B2EB074261EB17414FEAFA
:101A60000C444FEA910706FB07FC4FEA1C4C0CFBA9
:101A70000BF7B0EBC74072EB573203FB0CF734BFE8
:101A8000A2EBC742B2EBC74261EB57310CFB0EF73A
:101A9000B0EBC70072EB57720CFB08F734BFA2EB38
:101AA000C702B2EBC70261EB5771039F4FEA816136
:101AB00041EA921104EBCC044FEAD1374FEA82623B
:101AC00006FB07FC42EA90124FEA80604FEA1C4C8A
:101AD0000CFB0BF7D21B03FB0CF761EB07010CFBB4
:101AE0000EF7B0EB074072EB17420CFB08F734BF60
:101AF000A2EB0742B2EB074261EB17414FEA8C556C
:101B00004FEA910704EB9C2406FB07FC4FEA1C4CB0
:101B10000CFB0BF7B0EBC74072EB573203FB0CF733
:101B200034BFA2EBC742B2EBC74261EB57310CFBAB
:101B30000EF7B0EBC70072EB57720CFB08F734BF1F
:101B4000A2EBC702B2EBC70261EB577115EB4C2554
:101B50004FEA816141EA92114FEA82624FEAD1373E
:101B600042EA901206FB07FC44F100044FEA806051
:101B70004FEA1C4C0CFB0BF7D21B03FB0CF761EB81
:101B800007010CFB0EF7B0EB074072EB17420CFBA2
:101B900008F734BFA2EB0742B2EB074261EB1741F3
:101BA00015EB1C154FEA813141EA92414FEA82322E
:101BB00042EA90424FEA80304FEA0C7644F100044A
:101BC00048EA03434EEA0B484FF0000EB2EB080C14
:101BD00071EB030724BF624639464EEB0E0E4FF001
:101BE000000B0018524149414BEB0B0BB2EB080CB8
:101BF00071EB03077BF1000B24BF624639464EEBC5
:101C00000E0E4FF0000B0018524149414BEB0B0BED
:101C1000B2EB080C71EB03077BF1000B24BF6246AB
:101C200039464EEB0E0E51EA020718BF46F0010688
:101C300016EB0E7655F1000254F1000103D5BDE814
:101C40008901BDE80088BDE88901BDE80048B619F2
:101C5000524141EB0101A3F10103704780807F7E77
:101C60007D7C7B7A79787776767574737271717012
:101C70006F6E6E6D6C6C6B6A6A69686867666665C4
:101C80006464636362616160605F5F5E5E5D5D5C52
:101C90005C5B5B5A5A5959585857575656555555C3
:101CA0005454535352525251515050504F4F4F4E23
:101CB0004E4D4D4D4C4C4C4B4B4B4A4A4A49494971
:101CC00048484847474747464646454545444444B3
:101CD000444343434342424242414141002B9C46DC
:101CE00030D477002BD01CB54FEA370703B44FF040
:101CF00010004FF01001BAF1000F06D0BCF1000F38
:101D0000DCBF40F0080040F008014FF000000FBCBD
:101D1000BDE810400BF1010BBBF1010F08BF5FEAFA
:101D2000170722BF12F1010211F101014FF000412A
:101D300043F1000300F0004043EA00007047F9D38C
:101D40005708D0E746EA064613F1400F4FEA164619
:101D50001FDD13F1200FDFBF16430A460021203399
:101D60005B42BED0C3F1200746EA064602FA07F7F7
:101D70004FEA164646EA0706C3F1200722FA03F2A5
:101D800001FA07F721FA03F14FF0000342EA0702D4
:101D9000A7E746EA020646EA06464FEA164646EA3C
:101DA0000106BCBF46EA0646360C4FF000034FF072
:101DB00000024FF0000194E72DE9804C9A469346CB
:101DC00070B491E8380007C831EA400C48BF34EAE3
:101DD000430C03D5FFF7E6FDFFF780FFF0BCBDE83D
:101DE000008C2DE9804C9A46934670B491E83800F7
:101DF00007C810F0804F08BF13F0804F03D100F0E8
:101E000005F8FFF76BFFF0BCBDE8008C20F07F47C2
:101E100080EA030023F07F4C07EB0C03A3F57C530F
:101E200000F00040A3F1FE0392F0000F00F0B38039
:101E300095F0000F00F077802DE901494FEA11403D
:101E40004FEA144621EA004800FB06FC24EA064754
:101E500008FB06F607FB08F800FB07F718EB064837
:101E60004CEB164C4FEA124B18EB07484FEA15465D
:101E70004CEB174022EA0B4E0BFB06FC25EA06470B
:101E80000EFB06F607FB0EFE0BFB07F71EEB064EDE
:101E90004CEB164C4FF000061EEB074E4CEB174B6D
:101EA00018EB0B0840F1000018EB0E0B58EB000884
:101EB00040F100008F1A4FF000013CBFC943661B80
:101EC00014BFB5EB040C00213CBFC943F61B4FEA1D
:101ED00017444EEA8E0E27EA04454FEA1C4704FBDE
:101EE00007622CEA074C05FB07F70CFB05F604FB21
:101EF0000CFC16EB074642EB174216EB0C4642EB86
:101F00001C421BEB060658EB0202414146EA9E06C4
:101F100001D5BDE80189B619524141EB0101A3F198
:101F20000103BDE801894FEA14454FEA114724EA4D
:101F3000054621EA074C05FB07F406FB07F70CFBF7
:101F400006F105FB0CFC11EB074144EB17444FEA8B
:101F5000124711EB0C4144EB1C4422EA074C05FBF1
:101F600007F206FB07F70CFB06F605FB0CFC16EB6D
:101F7000074642EB174216EB0C4642EB1C456A182B
:101F800054F1000148BF7047B619524141EB0101BD
:101F9000A3F10103704795F0000F37D04FEA1142CB
:101FA0004FEA144721EA024624EA074C02FB07F1F4
:101FB00006FB07F70CFB06F402FB0CFC14EB0744D2
:101FC00041EB17414FEA154714EB0C4441EB1C4120
:101FD00025EA074C02FB07F506FB07F70CFB06F6A4
:101FE00002FB0CFC16EB074645EB174516EB0C46BF
:101FF00045EB1C42121951F1000148BF7047B61958
:10200000524141EB0101A3F1010370474FEA14452E
:102010004FEA114724EA054621EA074C05FB07F180
:1020200006FB07F70CFB06F24FF0000605FB0CFC65
:1020300012EB074241EB174112EB0C4251EB1C41F2
:1020400048BF7047921841EB0101A3F101037047AB
:1020500010B5044800F092FCBDE81040024800F0C2
:102060008DBC000068050020D405002010B5846AEE
:10207000E16D11F0500F06D0E16DC90625D520465F
:1020800000F07AFC10BDE06D40F40070E06520685F
:102090000168090716D503F04EFC78B12068C068C6
:1020A000800400280ADBE06D20F48070E065E06DBC
:1020B000C00403D4E06D40F00100E065204600F06C
:1020C00059FC10BDC0688007EBE7616D496BBDE846
:1020D0001040084710B5806AC16D41F04001C165EC
:1020E000016E41F00401016600F046FC10BD10B520
:1020F000806A00F040FC10BD70B50446006881683D
:102100008268C1F3400112F0010F28D039BB816809
:1021100001F00D01012914D18168124A1140891C76
:10212000816021680320086001F090FA054612E002
:1021300001F08CFA401B02280DD920688068C00786
:1021400009D0E06D40F01000E065206E40F0010025
:102150002066012070BD20688068C007E8D100209B
:1021600070BD0000C0FFFF7FF8B50446002000905E
:102170002068816811F0010F4AD18168254A114217
:1021800037D18168D5432940491C81602068B0F16E
:10219000A04F02D02049884201D1204800E02048C9
:1021A000806800F0E07000020DD51E481E490068EE
:1021B000B0FBF1F0401C00EB4000800000E0401E4E
:1021C00000900028FBD101F041FA06461BE081682F
:1021D00011F0010F03D181682940491C816001F091
:1021E00035FA801B02280ED920680068C043C0075A
:1021F00009D0E06D40F01000E065206E40F0010075
:1022000020660120F8BD20680168C943C907DED1F6
:102210000020F8BD3F000080000100500003005086
:102220000007005070000020400D0300FEE7000092
:10223000014800F0C8BF000028090020014800F054
:10224000C2BF000088090020014800F0BCBF0000A8
:1022500040060020014800F0B6BF0000A0060020A4
:102260000D4902688A4201D20C4901E00B49203134
:10227000D2B21423083AB2FBF3F2436C02F01F020D
:1022800023F003031944816404498031C1640121AE
:1022900091400165704700000804024000080240B8
:1022A0000179074A02EB81024265054A4432491E20
:1022B000826501F01F0201219140C1657047000055
:1022C000FC08024030B5D0E913456560446D14B197
:1022D000D0E91645656090F8444004F01F050124DC
:1022E000AC40056C6C60046863608368102B036805
:1022F00003D099600068C26030BD9A600068C16018
:1023000030BD704772B6FEE7F8B500260446009669
:1023100090F858000D4601280BD0012084F8580091
:102320002046FFF7E9FE0100E06D04D040F0100008
:102330002AE00220F8BD20F4885040F00200E06559
:1023400020688268134B1A4005F080431A4342F01C
:1023500000428260104A20680EE0009B5B1C0093E4
:10236000934209D3E06D20F0020040F01000E065D8
:1023700084F858600120F8BD8368DB0FEDD1E06D73
:1023800020F0020040F00100E06584F85860084643
:10239000F8BD0000C0FFFF3F02DE04007047704739
:1023A00070477047704700002DE9F04F044690F8E1
:1023B00058009BB00F464FF0000B012812D00120AF
:1023C00084F8580000261796189620684FF0A04809
:1023D000DFF81C91DFF81CA1474D404506D1284687
:1023E000009508E002201BB0BDE8F08F48450AD1F7
:1023F0005046CDF800A003F09AFA0090206803F050
:1024000096FA40B109E0E06D40F02000E06584F804
:1024100058600120E7E7009850B1E06D40F02000DF
:10242000E0654FF0010B00BF84F858605846DAE7CA
:1024300020684146884201D0A84201D12F4800E0DF
:102440002F48D7F800C02F4B40F61F72BCF1000F89
:102450002DD0D0F808C094F838802CF4604C4CEAA9
:10246000483CD7F804804CEA080CC0F808C0D4F8FF
:1024700000C08C4501D0AC4504D18968AB6801F03F
:10248000010109E0D9F80810DAF8085001F001015B
:1024900005F001059B68294303F001031943C3D1EB
:1024A000BB68396819438368934319431DE0876803
:1024B00027F46047876027688F4201D0AF4204D17C
:1024C0008968AB6801F0010109E0D9F80810DAF871
:1024D000085001F0010105F001059B68294303F054
:1024E00001031943A0D18168914381609CE70000FA
:1024F000000400500005005000010050000300508F
:1025000000070050000600502DE9F84F0027044650
:10251000009790F85800DFF81C840D46B946012852
:1025200011D0012684F85860206803F0FCF960B1EE
:10253000E06D40F02000E0655FF0010784F85890FE
:102540003846BDE8F88F0220FBE7D5E900210C23CF
:10255000206803EA91131844036B01F01F014FF048
:102560001F0C0CFA01FCC2F3846223EA0C038A40BC
:1025700013430363206803F0D6F98246206803F012
:10258000CEF95AEA00003CD1AA6829682068B2F165
:10259000004F37D003F0D7F92068416921F000419E
:1025A000416120686969C268C2F3C102520091406A
:1025B0002A69042A31D000EB82002B68026EDFF812
:1025C00078C303F0F84302EA0C020B431A4342F0CB
:1025D0000041016622682869A96902EB8000026E49
:1025E00022F080720A430266297F22682869012945
:1025F00010D0002102EB8000026E22F000720A432C
:1026000002667DE0002203F09EF92068416941F0F6
:102610000041C5E74FF00071ECE7002103F079F9C4
:10262000400320684FF0000172D003F072F990FA75
:10263000A0F0B0FA80F1286842036ED090FAA0F0C2
:10264000B0FA80F0814204D100221146206803F0E4
:1026500089F90121206803F05CF9400320684FF0FC
:1026600001015DD003F055F990FAA0F0B0FA80F1C5
:102670002868420359D090FAA0F0B0FA80F0814265
:1026800004D100220121206803F06CF902212068A6
:1026900003F03FF9400320684FF0020148D003F0F7
:1026A00038F990FAA0F0B0FA80F12868420344D0DB
:1026B00090FAA0F0B0FA80F0814204D10022022109
:1026C000206803F04FF90321206803F022F940034A
:1026D00020684FF0030133D003F01BF990FAA0F00B
:1026E000B0FA80F1286842032FD090FAA0F0B0FA37
:1026F00080F0814204D100220321206803F032F9E6
:102700002068816811F0010F22D0ACE000E004E005
:1027100003F0FFF8C0F384618DE7C0F3846091E7B4
:1027200003F0F7F8C0F38461A2E7C0F38460A6E782
:1027300003F0EFF8C0F38461B7E7C0F38460BBE750
:1027400003F0E7F8C0F38461CCE7C0F38460D0E71E
:102750002A7B296850F8B03FC1F3120C23EA0C031E
:1027600002F0180C754A22FA0CF20A401343036077
:10277000E968414577D1286841031CD090FAA0F15F
:10278000B1FA81F1491C01F01F0109294FEA4031DA
:1027900032D8002912D000BF90FAA0F1B1FA81F12D
:1027A00001F1010101F01F0106FA01F609D100BF94
:1027B000C0F3846109E0C0F38461E3E7C0F384619E
:1027C000EEE790FAA0F1B1FA81F101F1010101F017
:1027D0001F0146EA816102D1C0F3846003E090FAF0
:1027E000A0F0B0FA80F000F1010000F01F0000EB53
:1027F000400041EA005132E000290ED090FAA0F1E9
:10280000B1FA81F101F1010101F01F0106FA01F6AF
:1028100006D100BFC0F3846106E0C0F38461F1E734
:1028200090FAA0F1B1FA81F101F1010101F01F016B
:1028300046EA816102D1C0F3846003E090FAA0F01F
:10284000B0FA80F000F1010000F01F003C4A00EBFC
:10285000400002EB005041EA000141F00071AA681B
:10286000206803F070F837482B6803423FF466AEE7
:1028700021684FF0A04C3448344E354D614501D0AD
:10288000A94201D1024600E032469268DFF8C480D6
:1028900002F0E072434503D0DFF8BC80434521D10C
:1028A0005FEA02281ED4614506D02C4B99427FF482
:1028B00045AEA94200D0304642F40001826822F0C1
:1028C000E0720A438260264826490068B0FBF1F0B6
:1028D000401C00EB4000800000E0401E00900028FB
:1028E000FBD12BE6DFF8808043450FD15FEAC218A9
:1028F0000CD4A94202D11D4B9942F2D0614502D0BD
:10290000A94200D0304642F080710CE0DFF86080D0
:102910004345E6D15302E4D4A942E2D0614500D058
:10292000304642F48001826822F0E0720A438260FD
:1029300004E6000000007F4000F0FF03FFFF0700F7
:10294000000020FE00000880000300500007005037
:1029500000010050000021C31000C090000600508C
:1029600070000020400D0300000052C70005005019
:10297000000084CB70477047704700002DE9F84F86
:1029800004460068066845684FF0A048DFF890925A
:10299000404501D0484501D1A24800E0A2488068E6
:1029A00000F01F07B0070ED5A8070CD5E06DC006D4
:1029B00003D4E06D40F40060E0652046FFF7EEFCD4
:1029C000216802200860DFF864B2DFF864A27007B3
:1029D00001D5680703D430073FD528073DD5E06D02
:1029E000C00603D4E06D40F40070E065206802F09A
:1029F000A2FF60B32068484501D1424604E0584533
:102A000001D1524600E00246824208D03FB1052F74
:102A100005D0092F03D0484503D1414606E0C168DF
:102A200005E0584501D1514600E00146C9688904D6
:102A30000DD4016809070AD502F075FF58B3E06D9F
:102A400040F01000E065206E40F001002066204656
:102A5000FFF790FF21680C200860B00601D5A8069A
:102A600003D470065FD568065DD5E06DC00603D45B
:102A7000E06D40F40050E0652068C16C11F4C07F47
:102A80001AD00021009102F056FF02462068484506
:102A900014D1434617E02068416821F00C014160E1
:102AA000E06D20F48070E065E06DC004CFD4E06D8F
:102AB00040F00100E065CAE70121E3E7584501D194
:102AC000534600E00346834208D03FB1062F05D0AD
:102AD000072F03D0484503D1414606E0C16805E011
:102AE000584501D1514600E00146C968009BA3B199
:102AF0008B0102D58AB18A040FD4026852060CD524
:102B000089020AD402F00BFFF0B3E06D40F0100030
:102B1000E065206E40F0010020662046FFF73FFC94
:102B200021686020086030060BD5280609D5E06DC5
:102B300040F48030E065204600F094F92168802060
:102B40000860F0050CD5E8050AD5E06D40F40030CA
:102B5000E0652046FFF725FC21684FF4807008608F
:102B6000B0050CD5A8050AD5E06D40F48020E065DD
:102B70002046FFF717FC21684FF400700860F0064C
:102B800031D5E8062FD500E009E0E06BE8B1206818
:102B9000EFB3404501D0484512D1224811E02068EA
:102BA000416821F060014160E06D20F48050E065F3
:102BB000E06DC005B1D4E06D40F00100E065ACE728
:102BC0001948806800F4604050B1E06D40F48060C6
:102BD000E065206E40F0020020662046FFF7CCFE44
:102BE000216810200860700517D5680515D5E06DBF
:102BF00040F48040E065206E40F0080020662168C7
:102C00004FF4806008602046BDE8F84F00E001E026
:102C1000FFF7C6BBC068C007D6E7BDE8F88F000065
:102C20000001005000030050000700500005005054
:102C300000040050F8B54FF0000504002E46009542
:102C400002D0E06D10B107E00120F8BD204600F091
:102C50000BF9266684F8586020688168C1F34071DA
:102C600019B18168734A1140816020688168C1F39D
:102C7000007189B98168704A114041F080518160CA
:102C80006E486F490068B0FBF1F04000801C00E026
:102C9000401E00900028FBD120688168C1F30071BC
:102CA00041B9E16D41F01001E165216E41F0010192
:102CB0002166012502F037FEE16DC90600D430B16E
:102CC000E06D40F01000E06501252846F8BDE06D9C
:102CD00020F4807040F00200E0652068816811F007
:102CE000010F27D14FF0A043564A984201D090429D
:102CF00004D19968966801F001010AE05249896897
:102D0000524E01F00101B66806F001063143504E03
:102D1000B66806F0010631430CD1984201D09042CA
:102D200001D14C4800E04C486168826822F47C1272
:102D30000A438260E168E06B627F0843A16841EA70
:102D40004231084394F8241040EA0140012904D19B
:102D5000218D424A02EB41410843E16A29B101F465
:102D60007871226B014342EA01002268D1683C4B32
:102D700019400143D16020680169626B21F0406114
:102D800011430161206802F0CAFD70BB207F94F8F6
:102D900038102268800340EA4100D16844F20203FF
:102DA00099430143D16020690028206801690AD055
:102DB00041F480310161206850F8C01F22696FF32F
:102DC0000D01114307E021F480310161206850F8C2
:102DD000C01F6FF30D01016094F8400001280CD072
:102DE0002068016921F00101016160690128206802
:102DF000016B21F00F0111D013E0D4E91101084358
:102E0000D4E913121143084321680A6940F2FC73A4
:102E10009A43104340F001000861E6E7226A521E1F
:102E200011430163E06D20F0020040F00100E06515
:102E30004BE70000C0FFFF5FC0FFFF7F7000002076
:102E4000400D030000010050000400500005005038
:102E50000006005000030050000700500000FEFF75
:102E60000740F0FF704700002DE9F04F9BB0064689
:102E7000142115A8FDF700FB54216846FDF7FCFA64
:102E80004FF40040316800258203464F464C4FF016
:102E900003084FF080094FF4807A4FF4806BB1F152
:102EA000A04F10D0414B99424AD1009011926846F0
:102EB00000F0ACFF08B1FFF725FA3868401C386015
:102EC000012840D047E000901192684600F09EFF34
:102ED00008B1FFF717FA3868401C3860012807D19D
:102EE000E06C40F40050E064E06C00F400501A9094
:102EF000E06C40F00100E064E06CCDF8548000F03C
:102F00000100CDE916851A9015A94FF0904000F008
:102F10006FFA284C264801C40520E4E80205202069
:102F2000A4E8200E64E80705224834E07465002216
:102F300011461220A66200F0D1FE122000F0C0FE61
:102F40001BB0BDE8F08FE06C40F40050E064E06C32
:102F500000F400501A90E06C40F00100E064E06C76
:102F6000179500F001001A90C020CDE9150815A9A9
:102F70004FF0904000F03CFA0E4C0D486034143095
:102F800001C42420E4E802052020A4E8200E64E81F
:102F900007050848603000F073F90028C6D0FFF735
:102FA000B1F9C3E7600000200010024000010050AA
:102FB00030000240400600202DE9F047044600683A
:102FC0004FF0A0483D4F91468A46404501D0B84257
:102FD00001D13B4900E03B49896801F01F0502F03F
:102FE000A2FC002868D194F85800012864D0012080
:102FF00084F8580034492068884201D1012000E05B
:103000000020401E28424FF0000605D0052D03D0B9
:10301000092D01D0012003E02046FFF7A5F818B1E3
:1030200084F85860BDE8F087E06D40F601618843A0
:1030300040F48070E0652068B84201D1414605E067
:103040002249884201D1224900E00146814200D054
:103050001DB9E06D20F48010E065E06DC00404D57A
:10306000206E20F00600206600E02666616D19489B
:10307000C862616D18480863616D1848486321682B
:103080001C20086084F858602068416841F01001F5
:1030900041602068C16841F00101C16021684B4670
:1030A00052464031606D00F04BF921688A680C4B44
:1030B0001A40121D8A60B5E70220B3E700010050F4
:1030C00000030050000700500006005000050050AB
:1030D000000400506D200008EF200008D5200008F3
:1030E000C0FFFF7F10B590F8253000210122022B90
:1030F00003D00421C163012122E003681C6824F08D
:103100000E041C60836C1C6824F480741C600368CB
:103110001C6824F001041C6090F84430046C03F037
:103120001F0302FA03F36360D0E913345C60436D5C
:1031300033B11C6824F480741C60D0E916345C60E0
:1031400080F82520002280F82420084610BD70B5A4
:1031500090F82520002401212346022A07D00422CA
:10316000C26380F8251080F82430012429E0026829
:10317000156825F00E0515600268156825F0010533
:103180001560826C156825F48075156090F84420F0
:10319000056C02F01F0201FA02F26A60D0E9132501
:1031A0005560426D32B1156825F480751560D0E91F
:1031B0001625556080F8251080F82430816B01B108
:1031C0008847204670BDF0B4016C0C6801680D683A
:1031D00090F8442002F01F06042202FA06F323426C
:1031E00011D06B070FD50B689B0603D40B6823F037
:1031F00004030B6090F8441001F01F018A40016C39
:103200004A60016B1DE0022303FA06F727424FF0E4
:10321000000C4FF0010218D0AF0716D50C68A406B9
:1032200005D40C6824F00A040C6080F8252090F87E
:10323000441001F01F018B40016C4B6080F824C0EA
:10324000C16A00291AD0F0BC08470823B3402342C2
:1032500014D02B0712D50B6823F00E030B6090F8E7
:103260004410036C01F01F0102FA01F15960C263BE
:1032700080F8252080F824C0416BE2E7F0BC70475D
:1032800070B504000CD02B4A21681420914209D259
:10329000294A0A44B2FBF0F08000606427480AE043
:1032A000012070BD234A52420A44B2FBF0F0800074
:1032B0006064204808382064022084F825000A68E9
:1032C00047F6F0708243D4E902031843D4E9043589
:1032D0002B431843A3691843E3691843236A18432F
:1032E000104308602046FEF7BBFFA0680025B0F53C
:1032F000804F00D16560A16C20790860D4E913018A
:1033000041606068401E032808D82046FEF7C8FFC9
:10331000606D0560D4E91601416002E06565A56550
:10332000E565E563012084F8250084F82450002039
:1033300070BD000008040240F8FFFDBF000002401D
:1033400070B5044690F82400002501280CD0012017
:1033500084F8240094F825600020012E06D084F81B
:1033600024000225284670BD022070BD022684F884
:103370002560E0632068066826F0010606602046A6
:10338000FEF7A0FF206B00282068016802D041F002
:103390000E0106E021F0040101602068016841F09F
:1033A0000A010160A06C0168C90303D5016841F4FA
:1033B00080710160606D18B1016841F48071016035
:1033C0002068016841F001010160CBE770B5044657
:1033D00000F03CF90546601C02D0044840680444F3
:1033E00000F034F9401BA042FAD370BD6400002005
:1033F0002DE9F04FDFF82092002301260324A9F1E4
:10340000040B85B00F2709F1040AABF1040EFAE0B2
:1034100006FA03F52A407CD091F804C00CF0030CA6
:10342000BCF1010F02D0BCF1020F26D1D0F808C0C8
:10343000CDF800C04FEA430C04FA0CF8CDF810C0E8
:10344000DDF800C02CEA080CCDF800C0D1F80C80E3
:10345000DDF810C008FA0CF8DDF800C048EA0C08E6
:10346000C0F80880D0F804C02CEA050C0D79C5F32B
:1034700000159D4045EA0C0545600D79ED43AD070B
:103480000ED0C5684FEA430804FA08FC25EA0C058B
:10349000D1F808C00CFA08FC4CEA050CC0F80CC0C6
:1034A0000D7905F00305022D16D1DD0800EB850C22
:1034B000CDF808C0DCF820805D074FEAD56C07FA2C
:1034C0000CF528EA05080D6905FA0CF5DDF808C0C9
:1034D00045EA0805CCF8205005684FEA430CCDF8C2
:1034E00008C004FA0CFC25EA0C0591F804C00CF0A5
:1034F0000308DDF808C008FA0CF848EA0508C0F827
:1035000000804D6815F4403F7CD0444DD5F860C034
:1035100000E077E04CF0010CC5F860C02D6E23F0A0
:10352000030C05F0010500953D4D65440295AD681D
:103530004FEA837C4FEA1C7807FA08FC25EA0C0561
:10354000B0F1904F06D0DFF8DCC0604505D14FF0F8
:10355000010C20E04FF0000C1DE0DFF8CCC060450E
:1035600002D14FF0020C16E0DFF8C0C0604502D176
:103570004FF0030C0FE0DFF8B8C0604502D14FF008
:10358000040C08E0DFF8ACC0604502D14FF0050C38
:1035900001E04FF0060C0CFA08FC4CEA050C029D09
:1035A000C5F808C0D9F80050CC46D1F8048095433E
:1035B0005FEAC82800D51543CCF80050DAF800506F
:1035C000D446D1F8048095435FEA882800D5154396
:1035D000CCF80050DBF80050DC46D1F8048095436D
:1035E0005FEA883800D51543CCF80050DEF800506B
:1035F000F446D1F8048095435FEAC83800D51543F6
:10360000CCF800505B1C0A6832FA03F57FF400AF77
:1036100005B0BDE8F08F0000080401400010024032
:10362000000001400004004800080048000C004869
:1036300000100048001400480069084000D0012034
:1036400070470AB1816170478162704701488068A4
:10365000704700006400002010B590F8DC20012ABB
:1036600021D0012280F8DC20022380F8DD304B1CC1
:103670001BD00368D3F8CC4344F00204C3F8CC4316
:103680000368D3F8CC4324F00C040C43C3F8CC43B8
:103690000168D1F8CC3343F00103C1F8CC3380F892
:1036A000DD20002010BD022010BD0168D1F8CC3310
:1036B00023F00203C1F8CC33EAE7000070B590F8BC
:1036C000DD30022B3CD090F8DC30012B38D00125C6
:1036D00000F8DC5F022343701388948803F4E053FE
:1036E000C4F308041C4313896FF07E4603F400738F
:1036F0002343148A04F480441C43938903F4004355
:103700002343948A06EA04441C43936903F000733C
:103710002343146AD26904F080441C4302F000423F
:10372000224350F8DC3CB82404EBC1141959054E6F
:10373000314011431951457000210170084670BD98
:10374000022070BD0020003C38B5040056D0022095
:1037500084F8DD000025C4F8E050C4F8E450C4F853
:10376000E850C4F8EC50C4F8F050C4F8F450C4F871
:10377000F850207AC0071BD021492068884208D120
:103780002048016E41F080610166006E00F08060AB
:1037900000902168086820F44042208A00F44040EC
:1037A000104320F44052A08A00F4405010430860B7
:1037B000204600F029F8207A800708D5216808689B
:1037C00020F44072A08900F440701043086001208A
:1037D00084F8DD0084F8DC505FF00001C1EBC1002B
:1037E00004EB8000491C8561C56105624562856204
:1037F000C9B205630629F1D9002038BD012038BDC2
:10380000006801400010024008B50068064988427F
:1038100008D10648016E41F080610166006E00F03B
:103820008060009008BD0000006801400010024068
:1038300010B586B0044614216846FCF71DFE0F49FA
:103840002068884218D10E48C16C41F00101C16462
:10385000C06C694600F0010005904FF44070009084
:103860000220019000200290032003900D2004907C
:103870004FF09040FFF7BCFD06B010BD006801405E
:103880000010024070B50D460446FFF7DFFE064605
:1038900007E0681C05D0FFF7D9FE801BA8420DD8B1
:1038A00065B12068D0F88803C043C003F1D401207B
:1038B00084F8DD00002084F8DC0070BD072084F867
:1038C000DD00032070BD70B590F8DD30022B23D0F1
:1038D000022380F8DD30062920D08023046803EB22
:1038E000C115635923F007069368334323F0180684
:1038F000D368334363519425046805EBC1151368FD
:1039000063519824036804EBC11152685A50012195
:1039100080F8DD10002070BD022070BD03681968BA
:1039200021F007049168214321F01804D168214354
:103930001960036811685961516802689161E6E78E
:103940002DE9F04F90F8DD40022C25D090F8DC40B6
:10395000012C21D04FF0010980F8DC90022480F87E
:10396000DD4000274FF0070C062918D09C2404EBFB
:10397000C116012A39D08024A8254FF4005A4FF4EB
:10398000405B05EBC11504EBC114022A2FD0042AB9
:1039900045D0082A0BD144E00220BDE8F08F012A6F
:1039A0000AD0022A0CD0042A0ED0082A10D080F89F
:1039B000DDC080F8DC700EE002681968D1610AE0B1
:1039C00002681968516206E002681968916202E0B3
:1039D00002681968D16290F8DD10072948D080F894
:1039E000DD9080F8DC700020D7E7196835E04FF0F3
:1039F000A408D0F800C008EBC1111A684CF80120E7
:103A00005968002901680A5922F440522ED00A51FF
:103A100001680A59D3F804C042EA0C0218E0196898
:103A200021E04FF0AC08D0F800C008EBC1111A68D3
:103A30004CF801205968002901680A5922F44042D3
:103A400014D00A5101680A59D3F804C042EA8C0222
:103A50000A515968514503D1996802689151BAE7F2
:103A60005945B8D1996802685151B4E70A51B2E793
:103A7000012092E710B590F8DC20012A0ED0012237
:103A800000F8DC2F0223437050F8DC3C1C680C4328
:103A90001C60427000210170084610BD022010BD5C
:103AA00070B5044690F8DD00022811D094F8DC00CF
:103AB00001280ED0012584F8DC50022084F8DD00B6
:103AC000204601F0E8FD84F8DD50002084F8DC0099
:103AD00070BD022070BD10B590F8DC20012A10D016
:103AE000012200F8DC2F0223437050F8DC3CD3F8AD
:103AF00094430C43C3F8944342700021017008467C
:103B000010BD022010BD2DE9F041044690F8DD0003
:103B100015460E46022826D094F8DC00012821D054
:103B2000012784F8DC70022084F8DD00062E1CD00A
:103B3000204601F01FFEC6EBC60004EB800029689A
:103B4000016269684162A9688162E968C1622969A4
:103B500001633146204601F020FD062E15D0E86AAB
:103B600040B112E00220BDE8F0811146204601F08C
:103B700049FDE0E78021206801EBC6114258EB6D5A
:103B800022F4007242EA4322425084F8DD700020A1
:103B900084F8DC00E7E72DE9F041044690F8DD0009
:103BA000022824D094F8DC0001281FD0012584F8D5
:103BB000DC50022084F8DD00EC20266800EBC11305
:103BC000F058176820F0100040EA071020F4801722
:103BD0005068384320F48037D068384320F40037E9
:103BE000906838439769012F03D00CE00220BDE8AC
:103BF000F08120F004071069384320F00207506973
:103C0000384340F00100F050204601F0C6FC84F833
:103C1000DD50002084F8DC00E9E7000002488168FC
:103C200042681144816070476400002010B5002490
:103C3000032000F073F80F2000F008F808B1012409
:103C400001E000F025F8204610BD000070B50E4ED2
:103C500005460024706898B14FF47A71B1FBF0F01A
:103C60000A490968B1FBF0F000F09CFD40B9102D45
:103C700006D200222946501E00F030F8356000E0E0
:103C80000124204670BD0000640000207000002068
:103C90000A4882B0016E41F001010166016E01F037
:103CA00001010091816D41F080518165806D00F0CE
:103CB0008050009002B000F0A1B800000010024057
:103CC000002809DB00F01F0201219140400980001B
:103CD00000F1E020C0F8001170470000F0B40E4B76
:103CE0001B680C46C3F30223C3F10705042D00D95A
:103CF0000425191D072901D2002300E0DB1E01263F
:103D000006FA05F1491E214099409E40761E164054
:103D10003143F0BC02F09BBF0CED00E0064900F01F
:103D2000070208684FF6FF03184040EA0220034AE2
:103D300010430860704700000CED00E00000FA0539
:103D40002B492C4B0A6832214A432B4940B1B0F52C
:103D5000007F086829D020F4C06040F480602CE027
:103D60000868C0F34120022804D051F8800F20F4E5
:103D7000807022E0D1F8800020F48070C1F88000CB
:103D8000086820F4C06040F400700860B2FBF3F0F3
:103D9000401C00E0401E4A69520501D50028F9D1B7
:103DA000486940050AD503207047C0F34120022826
:103DB00006D051F8800F40F48070086000207047F2
:103DC000D1F8800040F48070C1F88000086820F4C9
:103DD000C06040F400700860B2FBF3F0401C00E0EB
:103DE000401E4A695205DBD50028F9D1D8E700000A
:103DF0007000002040420F000070004002488168BF
:103E000041F4804181607047007000402DE9F84323
:103E1000044600680026BB4D00035ED5A86D002750
:103E2000C00008D4A86D40F08050A865A86D012797
:103E300000F080500090DFF8D092D9F8001041F4E3
:103E40008071C9F80010FFF701FC804606E000BF52
:103E5000FFF7FCFBA0EB080002282BD8D9F80000E4
:103E6000C005F5D5D5F8900010F4407014D0216D40
:103E7000814211D0D5F89000D5F8901020F4407010
:103E800041F48031C5F89010D5F8901021F48031BC
:103E9000C5F89010C5F89000C00711D0FFF7D6FB09
:103EA000804641F2883907E0FFF7D0FBA0EB08011C
:103EB000494501D903260BE0D5F890008007F3D5DA
:103EC000D5F89000216D20F440700843C5F89000AB
:103ED0001FB1A86D20F08050A8652078C00707D0DA
:103EE000D5F88800616820F003000843C5F8880011
:103EF0002078800707D5D5F88800A16820F00C004D
:103F00000843C5F888002078400707D5D5F8880011
:103F1000E16820F030000843C5F8880020780007E9
:103F200007D5D5F88800216920F0C0000843C5F8FE
:103F300088002078C00607D5D5F88800616920F48C
:103F400040700843C5F888002078800607D5D5F86A
:103F50008800A16920F440600843C5F888002078F3
:103F6000400607D5D5F88800E16920F440500843A1
:103F7000C5F888002078000607D5D5F88800216AA2
:103F800020F440400843C5F888002088C00507D5C4
:103F9000D5F88800616A20F440300843C5F88800ED
:103FA0002068800307D5D5F89C00A16A20F00300A3
:103FB0000843C5F89C002088800507D5D5F88800FF
:103FC000E16A20F440200843C5F8880020884005B5
:103FD0000FD5D5F88800216B20F440100843C5F8B0
:103FE0008800206BB0F5801F03D1E86840F4801092
:103FF000E860208800050FD5D5F88800616B20F4B3
:1040000040000843C5F88800606BB0F5800F03D10D
:10401000E86840F48010E8602088C0040FD5D5F827
:104020008800A16B20F040700843C5F88800A06BA1
:10403000B0F1807F03D1E86840F48010E860208808
:104040004FF0006180040ED5D5F88800E26B20F0B7
:1040500040601043C5F88800E06B884203D1E868EF
:1040600040F48010E860208840040ED5D5F8880020
:10407000226C20F040601043C5F88800206C884214
:1040800003D1E86840F48010E860208800040FD570
:10409000D5F88800616C20F040500843C5F88800CE
:1040A000606CB0F1805F03D1E86840F48030E86074
:1040B0002068C0030FD5D5F88800A16C20F04040DF
:1040C0000843C5F88800A06CB0F1804F03D1E868C0
:1040D00040F48030E860206840030FD5D5F89C009C
:1040E000E16C20F440100843C5F89C00E06CB0F58A
:1040F000001F03D1E86840F48010E8603046BDE856
:10410000F883000000100240007000402DE9F047E5
:104110000E4605004FF0000725D0DFF8AC81D8F837
:10412000000000F00F00B0420CD2D8F8001021F0CF
:104130000F013143C8F80010D8F8000000F00F005C
:10414000B04210D12968614CC80741F2883A5AD070
:104150006868DFF87C91032808D0022820682DD0F9
:10416000400500282CDB0120BDE8F0872068800195
:10417000F9D5E06800F00302E068C0F30310401CCA
:10418000032A19D0534A00BFB2FBF0F0E268C2F331
:1041900006225043E268C2F34162521C5200B0FB57
:1041A000F2F0484517D9A06810F0F00F0CD088073E
:1041B00011D5A86840B10EE0474AE5E78003D0E793
:1041C00000F0B6F8484506D9A06820F0F00040F0AD
:1041D0008000A0608027A068696820F00300084381
:1041E000A060FFF733FA814606E000BFFFF72EFA22
:1041F000A0EB090151453AD8A068696800F00C00AD
:10420000B0EB810FF2D12868810714D5400703D5A0
:10421000A06840F4E060A0602878000705D5A06899
:1042200020F4605040F4E060A060A068A96820F02D
:10423000F000084304E0802F03D1A06820F0F000D4
:10424000A060D8F80010404601F00F01B14216D925
:10425000016821F00F0131430160FFF7F7F90746CC
:1042600007E000BFFFF7F2F9C11B514501D9032058
:104270007AE7D8F8000000F00F00B042F2D12878B9
:10428000400705D5A068E96820F4E0600843A06015
:104290002878000706D5A068296920F4605040EA14
:1042A000C100A06000F044F8A1680C4AC1F30311FA
:1042B000515C01F01F01C8400949086009480068C5
:1042C000BDE8F047FFF7C2BC0020024000100240EA
:1042D00000B4C4040024F400001BB700CA7E000828
:1042E00070000020640000200548064900688968C5
:1042F000054AC1F30221515C01F01F01C84070471B
:104300007000002000100240DA7E000805480649CF
:1043100000688968054AC1F3C221515C01F01F01A0
:10432000C84070477000002000100240DA7E00088C
:10433000184910B58868C0F381021748012A0BD0CC
:104340008A68164BC2F38102022A06D08A68C2F339
:104350008102032A03D0002010BD184610BDCA6890
:1043600002F00304CA68C2F30312521C032C02D0E9
:10437000B0FBF2F001E0B3FBF2F0CA68C968C2F327
:1043800006225043C1F34161491C4900B0FBF1F0E2
:1043900010BD0000001002400024F400001BB70014
:1043A0002DE9F84304007AD02078F84DC00747D0B3
:1043B000A868E96800F00C0001F003010C2802D0A5
:1043C000082817D001E0032914D06068B0F5803FB9
:1043D00017D0B0F5A02F286817D020F480302860BF
:1043E000286820F4802028606068E0B1FFF72EF98B
:1043F000064614E02868800322D560680028D2D0E1
:104400001EE0286840F48030EDE740F4802028600A
:10441000F7E700BFFFF71AF9801B642870D82868F7
:104420008003F7D50CE0FFF711F9064605E000BF61
:10443000FFF70CF9801B6428F0D828688003F7D4B4
:10444000207880074CD5A868E96800F00C0001F0DE
:1044500003010C2802D004280DD001E002290AD063
:10446000E068002828682BD040F480702860FFF7AF
:10447000EDF8064619E02868400502D5E0680028F6
:1044800091D06868217C20F0FE4040EA01606860BD
:10449000BF480068FFF7DAFB002800D120E072E196
:1044A000FFF7D4F8801B0228B8D828684005F7D554
:1044B0006868217C20F0FE4040EA016068600FE0FF
:1044C00020F480702860FFF7C1F8064605E000BFC1
:1044D000FFF7BCF8801B0228A0D828684005F7D455
:1044E0002078000729D560690028D5F8940013D0FA
:1044F00040F00100C5F89400FFF7A8F8064606E072
:1045000090E000BFFFF7A2F8801B022886D8D5F8FC
:1045100094008007F6D510E020F00100C5F8940063
:10452000FFF794F8064604E0FFF790F8801B022896
:1045300078D8D5F894008007F6D42078400761D564
:10454000A86D0026C00008D4A86D40F08050A86572
:10455000A86D012600F0805000908E480168C905C2
:1045600011D40168804641F480710160FFF76EF854
:10457000074604E0FFF76AF8C01B022852D8D8F8B3
:104580000000C005F6D5A068012815D00528D5F88B
:10459000900016D020F00100C5F89000D5F89000EA
:1045A00020F00400C5F89000A06841F28838B8B146
:1045B000FFF74CF807460EE0D5F8900040F00100F8
:1045C000F0E740F00400C5F89000F5E7FFF73EF88B
:1045D000C11B414526D8D5F890008007F6D50CE0E0
:1045E000FFF734F8074604E0FFF730F8C11B4145F8
:1045F00018D8D5F890008007F6D41EB1A86D20F029
:104600008050A8652078800629D5A0690028D5F8B3
:10461000980013D040F00100C5F89800FFF716F895
:10462000064606E075E000BFFFF710F8801B022881
:104630006FD8D5F898008007F6D510E020F001007B
:10464000C5F89800FFF702F8064604E0FEF7FEFF03
:10465000801B02285DD8D5F898008007F6D4E06961
:10466000F0B3A968C1F3810103295DD0022828684D
:1046700020F08070286003D0FEF7E8FF04464BE08E
:10468000FEF7E4FF064604E0FEF7E0FF801B022889
:104690003FD828688001F7D4F4E908016FF00F02D1
:1046A00002EB01110843218A5204490802EB4151EF
:1046B000A26841EA02210843217D4FF07E42490869
:1046C00002EB41610843217B40EAC160E968324A5C
:1046D00011400843E860286840F08070286000E0DE
:1046E0005EE0E86840F08070E860FEF7AFFF0446E7
:1046F00005E000BFFEF7AAFF001B022809D82868C2
:104700008001F7D54CE000BFFEF7A0FF001B022898
:1047100002D90320BDE8F88328688001F4D4E86852
:104720001E490840E8603BE00128F3D0E868226AAF
:1047300000F00301914226D1616A00F0F002090104
:10474000103991421FD1A26A00F4FE41B1EB022F51
:1047500019D194F82C2000F07841B1EBC26F12D13E
:10476000218E00F4C00249084905A1F500119142CB
:1047700009D194F8341000F0C06049084906A1F14D
:10478000007181420CD00120C4E7000000100240FB
:1047900064000020007000400C809F01FCFFEEFED2
:1047A0000020B7E710B5401EB0F1807F01D3012093
:1047B00010BD4FF0E02460610F21601702F047FA4E
:1047C0000020A06107202061002010BD70477047C5
:1047D0007047704770477047F0B590F83C20012A49
:1047E00043D0012580F83C50022280F83D20036828
:1047F0005A689C681E4E1F4FDFF87CC0B34203D03E
:10480000BB4201D0634504D122F4700E4A6842EAEB
:104810000E02DFF868E002EA0E02D1F800E04EEA8C
:10482000020EC3F804E00268B24212D0B2F1804F27
:104830000FD0134B9A420CD0124B9A4209D0124B14
:104840009A4206D0BA4204D0104B9A4201D0624537
:1048500004D1896824F080031943916080F83D50A9
:10486000002180F83C100846F0BD0220F0BD000099
:10487000002C014000340140005001408FFFFFFD3B
:104880000004004000080040000C004000400140CF
:10489000704710B5040003D094F83D0010B107E054
:1048A000012010BD002084F83C00204600F022F8D2
:1048B000022084F83D00211D206801F05BFE0120EC
:1048C00084F8480084F83E0084F83F0084F84000F3
:1048D00084F8410084F8420084F8430084F84400DE
:1048E00084F8450084F8460084F8470084F83D00C9
:1048F000002010BD08B5154A0168154891420ED137
:10490000816D41F002018165806D002200F002009E
:10491000009011461D20FFF7E1F91D2010E00D4A1F
:10492000914211D1816D41F004018165806D0022B9
:1049300000F00400009011461E20FFF7CFF91E2062
:10494000BDE80840FFF7BCB908BD00000004004006
:10495000001002400008004090F83D10012901D0ED
:1049600001207047022180F83D100168CA6842F0BA
:104970000102CA6000681349884214D0B0F1804F28
:1049800011D0114988420ED0104988420BD01049ED
:10499000884208D00F49884205D00F49884202D08A
:1049A0000E49884207D181680D4A1140062906D078
:1049B000B1F5803F03D0016841F0010101600020A2
:1049C00070470000002C0140000400400008004037
:1049D000000C004000340140004001400050014004
:1049E0000700010070B5044690F83C00002501283E
:1049F0001CD0012684F83C60022084F83D00226827
:104A00009068334B184020F47F4090600868B0F500
:104A1000005F2ED016DC402849D009DCD0B1102828
:104A200018D0202816D0302849D113E0022070BDBC
:104A300050282AD0602830D070280FD0B0F5805F81
:104A40003DD13DE010F00F0F39D10111A1F58031BA
:104A5000072934D822680146104625E0CB68D1E901
:104A60000121206801F0F8FD2068816841F077019C
:104A700009E0CB68D1E90121206801F0EDFD206853
:104A8000816841F4804181601AE0CA684968206801
:104A900001F0F6FD5021206806E0CA6849682068E8
:104AA00001F0FFFD6021206801F0E0FD08E0CA6828
:104AB0004968206801F0E4FD40212068F4E7012501
:104AC00084F83D60002084F83C00284670BD00005A
:104AD00088FFCEFF70472DE9F04104460068C668A4
:104AE00005694FF00007A90713D5B10711D5F91EC5
:104AF000016101202077206880698007204602D06C
:104B0000FFF7E8FF04E000F0B7F8204600F0B5F842
:104B10002777680716D5700714D521686FF0040051
:104B20000861022020772068806910F4407F2046C9
:104B300002D0FFF7CFFF04E000F09EF8204600F01F
:104B40009CF82777280715D5300713D521686FF013
:104B500008000861042020772068C069800720468B
:104B600002D0FFF7B7FF04E000F086F8204600F01F
:104B700084F82777E80616D5F00614D521686FF07B
:104B800010000861082020772068C06910F4407F79
:104B9000204602D0FFF79EFF04E000F06DF82046AB
:104BA00000F06BF82777E80708D0F00706D02168F7
:104BB0006FF001000861204600F060F8280601D47B
:104BC000A80408D5300606D521686FF402500861A4
:104BD0002046FFF7FCFDE80508D5300606D521681C
:104BE0006FF4807008612046FFF7F0FD680608D575
:104BF000700606D521686FF040000861204600F07D
:104C00001DFAA80608D5B00606D521686FF0200069
:104C100008612046FFF7DCFDE80208D5F00206D562
:104C200021686FF4801008612046FFF7D3FDA802C9
:104C300008D5B00206D521686FF40010086120463F
:104C4000FFF7C7FD680208D5700206D521686FF42A
:104C5000800008612046FFF7BEFD28020AD5300219
:104C600008D521686FF4000008612046BDE8F041D6
:104C7000FFF70EBEBDE8F081704770472DE9F047A1
:104C800006462DED068B4FF000090068CE49CF4C4B
:104C900088427CD1A088012801D9401EA08080B222
:104CA00001280ED1A08941F27071884209D29FED8E
:104CB000C80A032184ED070AC648FEF70CFFA4F8D2
:104CC0000490606A02F046FC9FEDC31B53EC112B6D
:104CD00002F09CF902F068F900EE100A84ED090A6E
:104CE00094ED05AA9FEDBE1AC1EE0A0AF4EEC00AC1
:104CF000F1EE10FA03D230EE600A84ED090ADFF813
:104D0000CC8208F13808B8F8000002F027FA9FEDCD
:104D1000B58B53EC182B02F035FA9FEDB49B53EC96
:104D2000192B02F02DFB02F03FF9B24D9FEDB20AB4
:104D3000A8F1040128602AEE000AD4ED090A081F30
:104D400020EE200AFCF72AFD284601F03FFBD4EDB7
:104D50000D0A95ED011A94ED0C0AD5ED021A20EE1C
:104D6000812AA8F1100000EE212A20EE010A00EEAF
:104D7000E10A80ED002A001D80ED000AD4ED060A4C
:104D80009FED9E1A40EE410A94ED050A00E034E0E2
:104D900030EE800A84ED050AD4ED090A20EE200ADF
:104DA000FCF7FAFBB5EEC00A84ED100AF1EE10FA3A
:104DB00001DCB1EE400AD4ED070A41F2680120EEB1
:104DC000200ADFED8F0A84ED100A20EE200ABCEEE7
:104DD000C00A10EE100A80B2A081884203D94BF6B7
:104DE0004071884200D308467A49A0810968C1F819
:104DF0009C002089F0B3401E20818249306888429F
:104E00007DD160897B49401C80B26081A43194EDE2
:104E1000110A01EB800181ED000A764994ED120A36
:104E2000543101EB8001132881ED000A67D3674AF2
:104E30007048A4F80A905C321421A430FCF756FCA8
:104E4000624B6C4854331A1D14215430FCF7F0FBAC
:104E5000D4ED170A94ED161A5C4820EEA00A5030E3
:104E600001EE010AB5EEC00AF1EE10FA7EDBB1EEFA
:104E7000C01A00E002E080ED001A90E053483C3098
:104E8000008802F06BF953EC182B02F07BF953EC1D
:104E9000192B02F075FA02F087F8564F3C3738604C
:104EA000384601F093FA97ED010AD5ED010A97ED26
:104EB000021AD5ED021A20EE202A61EE200A43489C
:104EC00001EE212A443040EE610A80ED002A001DE7
:104ED000C0ED000A03202081B8F8020002F03EF97C
:104EE0009FED491B53EC112B02F04CF99FED481B31
:104EF00053EC112B02F044FA02F056F800E05FE0A8
:104F000000EE100AA7F1240084ED130AD4ED080A7C
:104F100090ED031AD0ED001A70EEC00A90ED010A70
:104F200090ED042A20EE010A01EEA00AD0ED021A4B
:104F300001EE820AD0ED051A80ED041A9FED361AB3
:104F4000C0ED030A30EE210A80ED050AC0EE010A29
:104F500094ED070A30EE600A10EE100A84ED070A9D
:104F6000B0F17C5F03DC9FED2D0B0EE013E010EE43
:104F7000100A2C49884202DB9FED2B0B05E010EE56
:104F8000100A02F0E7FA41EC100B51EC100B02F0A2
:104F90000BF8E06131E79FED260A80ED000A94ED01
:104FA000141A80EE810A10EE100A02F0D3FA9FED77
:104FB000211B53EC112B02F0E3F901F0F5FF206502
:104FC000BDEC068BBDE8F087000400400000002027
:104FD000CDCC4C3F00070020613255302AA9133F49
:104FE000DB0FC940000000000000403F000000004F
:104FF0000000F03F74040020E02E6542DB0F4940C2
:105000000080544700080040C746205ED72F983FD5
:1050100054C085DBC11F48400000C84200000000AA
:105020000000E03FCDCC4C3F9A9999999999E93F7E
:10503000000000007B14AE47E17A943F704790F87F
:105040008410012918D0012180F884102421C0F88F
:10505000881001680A680B6823F001030B6022F0D6
:10506000005100224266036819602021C0F88810B0
:1050700080F88420104670470220704770477047C0
:1050800070B5044690F8840001281DD0012084F8F2
:1050900084002420C4F8880020680568026822F093
:1050A000010202602068826822F060620A43826026
:1050B000204601F009FB206805602020C4F8880024
:1050C000002084F8840070BD022070BD70B50446D5
:1050D00090F8840001281DD0012084F88400242049
:1050E000C4F8880020680568026822F001020260A6
:1050F0002068826822F060420A438260204601F004
:10510000E3FA206805602020C4F88800002084F8B5
:10511000840070BD022070BD70477047704700006A
:105120002DE9F04103680446D86919689A6840F689
:105130000F0528424FF000054FF002060AD18706FE
:105140007ED501F0200702F0805C57EA0C0777D08B
:10515000616F42E1B64FDFF8DCC2174001EA0C0C88
:1051600057EA0C0C6CD05FEAC07C0CD05FEAC15CE3
:1051700009D54FF0010CC3F820C0D4F8903043F0AB
:105180000103C4F89030830709D5D30707D02368FB
:105190001E62D4F8903043F00403C4F89030430703
:1051A0000AD5D30708D0266804233362D4F8903098
:1051B00043F00203C4F8903003070CD501F020033C
:1051C0003B4308D0266808233362D4F8903043F07C
:1051D0000803C4F8903003050BD54B0109D52668A8
:1051E0004FF400633362D4F8903043F02003C4F8E6
:1051F0009030D4F89030002B3DD0800609D501F0D6
:10520000200002F08051084303D0616F09B12046AD
:105210008847D4F8900021688968490602D410F0C4
:10522000280F2AD0204601F033FB20688068400612
:105230001ED52068083050E8001F21F0400100E032
:1052400021E040E80012002AF3D1D4F8800078B1C0
:1052500079498163D4F88000FDF779FF00280AD0EE
:10526000D4F88000816B00E02046BDE8F04108479B
:105270002046FFF753FFBDE8F0812046FFF74EFFC1
:10528000C4F89050F7E7D4F86CC02027BCF1010FA8
:105290007ED15FEAC06C7BD55FEAC16C78D5102007
:1052A000186220688068400651D5D4F880100A68DA
:1052B00050680004000C3ED0B4F85C3083423AD908
:1052C000A4F85E000868006880062CD4216851E8C4
:1052D000000F20F4807041E80002002AF6D1206817
:1052E000083050E8001F21F0010140E80012002AB8
:1052F000F5D12068083050E8001F21F0400140E857
:105300000012002AF5D1C4F88C70E566216851E8D6
:10531000000F20F0100041E80002002AF6D1D4F876
:105320008000FDF7DFFE2667B4F85C00B4F85E107D
:10533000401A81B207E0B4F85C1081429BD110683A
:10534000800698D526672046FFF798FE93E7B4F8C5
:105350005C00B4F85E10401A81B2B4F85E00002818
:1053600089D0002987D0226852E8000F20F490707D
:1053700042E80003002BF6D12D4BDB4320680830B8
:1053800050E8002F1A4040E8002CBCF1000F00E06C
:105390000EE0F3D1C4F88C70E5666567206850E8CC
:1053A000002F22F0100240E80023002BF6D1C9E7BD
:1053B000C60209D5560207D54FF480101862204660
:1053C000BDE8F041FFF7A9BE03060AD501F080034E
:1053D00002F40002134304D0A16F00297FF444AF0C
:1053E00049E7420611D54A060FD52046016851E823
:1053F000002F22F0400241E80023002BF6D1C0F834
:105400008870856700F0C8F835E7020206D54A00C3
:1054100004D52046BDE8F041FFF77EBEC00195D51A
:10542000002993DA2046BDE8F041FFF728BE0000CE
:1054300001000010200100048168000810B504007C
:1054400003D0D4F8880010B107E0012010BD00207F
:1054500084F88400204600F027F82420C4F888004F
:105460002068016821F001010160A06A10B12046A6
:1054700001F04CF9204601F035FA0128E6D0206809
:10548000416821F4904141602068816821F02A013F
:1054900081602068016841F0010101602046BDE89B
:1054A000104001F097B90000F0B59BB006461421FA
:1054B00015A8FAF7E1FF54216846FAF7DDFF3149F4
:1054C000306888425CD101200024CDE900046846A0
:1054D000FEF79CFC08B1FCF715FF2B48016E41F468
:1054E00080410166016E01F480411A91C16C41F066
:1054F0000401C164C06C15A900F004001A903020AA
:1055000015900220CDE916040720CDE918401F4868
:10551000FDF76EFF1F4D1E48802728601820C5E943
:105520000104C5E903476C61AC61EC6128462C625B
:10553000FDF7A6FE08B1FCF7E5FEC6F88050AE62A6
:10554000144D13486035143028601920686005F147
:105550000801102081E891006C61AC61EC61284683
:105560002C62FDF78DFE08B1FCF7CCFEF56700223A
:1055700011462520AE62FEF7B1FB2520FEF7A0FB09
:105580001BB0F0BD00380140001002400008004888
:1055900008000240280900207047072930D2DFE8C0
:1055A00001F00A10161C222804000068D0F88413A9
:1055B00041F0010122E00068D0F8841341F00201BB
:1055C0001CE00068D0F8841341F0040116E0006884
:1055D000D0F8841341F0080110E00068D0F884137B
:1055E00041F010010AE00068D0F8841341F0200176
:1055F00004E00068D0F8841341F04001C0F884133F
:105600007047000070B503681A68D3F8A0534C695E
:1056100022F020022646144324F0C002202E2BD074
:105620008C69022C28D0032C2BD0042C2ED022F0F5
:10563000E00200BF22F40064CA69224322F48064BD
:105640000A6A224322F0C0644A6A224322F00064BC
:105650008A6A2243CC6A22F0404242EA840222F063
:1056600000544A6B096B224325F4803421431A60AD
:105670000068C0F8A01370BD22F0C00242F0200202
:10568000D8E722F0800242F04002D3E722F0400245
:1056900042F08002CEE7F0B50024E426056806EB70
:1056A000C11755F807C0B82606EBC116AE59402AF7
:1056B00020D00EDC082A2CD006DC012A1AD0022ABF
:1056C00027D0042A31D115E0102A13D0202A2CD15A
:1056D0001FE0B2F5007F1CD005DC802A19D0B2F59E
:1056E000807F22D106E0B2F5806F03D0B2F5006F63
:1056F0001BD10EE04FF0BC0E0EEBC11E5A6845F8F0
:105700000E204FF0C00E05680EEBC1119A686A506A
:105710000BE0C42404EBC1145A682A51C82504685C
:1057200005EBC1119A6862501024FE21A1401A684D
:105730002CEA010CA240D96842EA0C02A1401143B4
:105740001A69D3F814C01546A2400A430CFA04FCA7
:1057500099694CEA020CA14041EA0C01082D06D1DE
:10576000B20504D4B20102D4DA69A2401143006840
:10577000C151F0BD2DE9F04F8024036804EBC1173F
:10578000DC5924F07044DC510568EC59E82303EB44
:10579000C1139E4655F803C0E42303EBC1139B4697
:1057A00055F803A0D5F8A033566924F020043443FB
:1057B000202E24D09669022E21D0032E24D0042E30
:1057C00027D024F4D07400BF24F40066D469344395
:1057D00024F48066146A344324F0C066546A344367
:1057E00024F00066946A344324F07046D46A34434B
:1057F000566B24F40034B6F1005F0FD010E024F4AF
:10580000C07444F02004DFE724F4807444F0800482
:10581000DAE724F0800444F48074D5E744F40034DB
:1058200024F04008946B2CF03F0C264644EA080410
:1058300024F48028946D44EA0804DFF8D08004EA58
:105840000804D2F8508048EA040992F83C40D2F8A3
:10585000408004F03F0444EA0C0424F0004448EA89
:105860000408546C2AF4807C44EA0C04D2F848C042
:10587000BCF5606F02D0BCF5F05F01D1402E03D1C2
:1058800024F4F0544CEA040424F48046D46C3443E9
:10589000566D062927D2DFE801F003090F151B21F9
:1058A000126B23F4003343EA42031CE0126B23F42F
:1058B000802343EA820316E0126B23F4002343EAB9
:1058C000C20310E0126B23F4801343EA02130AE0D0
:1058D000126B23F4001343EA421304E0126B23F427
:1058E000800343EA821345F80790056845F80E8067
:1058F000056845F80B40D424026804EBC1115650EA
:105900000068C0F8A033BDE8F08F0000FFFF06FE7E
:10591000FEE700EB8100006E00F0F8407047806801
:10592000C0F3C00070478068C0F380007047806893
:10593000C0F380007047C06810F4406F01D00020B1
:10594000704701207047042303EAD15310B518446F
:105950004369C1F3045107248C40A3438A40134395
:10596000436110BD00EB8100016E21F00041114345
:105970000166704710B58CB000240894099420216A
:1059800068460A94FAF778FD23484FF0A0410822B0
:1059900001604FF44031C0E90114C4600121046189
:1059A000C0E90512047741770222026280F82440A0
:1059B000C462046380F83810C46380F84040FDF787
:1059C00039F908B1FCF79EFC08A913480894FCF7C4
:1059D000EBFC08B1FCF796FC104800900620019003
:1059E00004207F21CDE90404CDE9020169460A487B
:1059F000FCF78AFD08B1FCF785FC094800900C20F3
:105A0000019069460448FCF77FFD002801D0FCF7AF
:105A100079FC0CB010BD00006805002002003004C5
:105A20000400600810B588B020216846FAF724FD0C
:105A300020481F49002401604FF44031C0E901149F
:105A4000C460012108220461C0E90512047741778E
:105A50000222026280F82440C462046380F8381095
:105A6000C46380F84040FDF7E5F808B1FCF74AFC54
:105A7000114800900620019004207F21CDE9040404
:105A8000CDE9020169460B48FCF73EFD08B1FCF781
:105A900039FC0A4800900C20019069460548FCF743
:105AA00033FD002801D0FCF72DFC08B010BD00002C
:105AB00000010050D40500200800900C1000C01018
:105AC000194808B5816C41F004018164816C01F0D2
:105AD00004010091816C41F001018164806C00221D
